{
  "contractName": "RedPacket",
  "abi": [
    {
      "inputs": [],
      "stateMutability": "nonpayable",
      "type": "constructor"
    },
    {
      "anonymous": false,
      "inputs": [
        {
          "indexed": true,
          "internalType": "address",
          "name": "sender",
          "type": "address"
        },
        {
          "indexed": false,
          "internalType": "uint256",
          "name": "amount",
          "type": "uint256"
        },
        {
          "indexed": false,
          "internalType": "uint256",
          "name": "count",
          "type": "uint256"
        },
        {
          "indexed": false,
          "internalType": "bool",
          "name": "isEqual",
          "type": "bool"
        },
        {
          "indexed": false,
          "internalType": "uint256",
          "name": "roundId",
          "type": "uint256"
        }
      ],
      "name": "PacketCreated",
      "type": "event"
    },
    {
      "anonymous": false,
      "inputs": [
        {
          "indexed": true,
          "internalType": "address",
          "name": "sender",
          "type": "address"
        },
        {
          "indexed": false,
          "internalType": "uint256",
          "name": "amount",
          "type": "uint256"
        },
        {
          "indexed": false,
          "internalType": "uint256",
          "name": "roundId",
          "type": "uint256"
        }
      ],
      "name": "PacketGrabbed",
      "type": "event"
    },
    {
      "inputs": [],
      "name": "count",
      "outputs": [
        {
          "internalType": "uint256",
          "name": "",
          "type": "uint256"
        }
      ],
      "stateMutability": "view",
      "type": "function",
      "constant": true
    },
    {
      "inputs": [
        {
          "internalType": "address",
          "name": "",
          "type": "address"
        }
      ],
      "name": "grabbedRound",
      "outputs": [
        {
          "internalType": "uint256",
          "name": "",
          "type": "uint256"
        }
      ],
      "stateMutability": "view",
      "type": "function",
      "constant": true
    },
    {
      "inputs": [],
      "name": "isEqual",
      "outputs": [
        {
          "internalType": "bool",
          "name": "",
          "type": "bool"
        }
      ],
      "stateMutability": "view",
      "type": "function",
      "constant": true
    },
    {
      "inputs": [],
      "name": "roundId",
      "outputs": [
        {
          "internalType": "uint256",
          "name": "",
          "type": "uint256"
        }
      ],
      "stateMutability": "view",
      "type": "function",
      "constant": true
    },
    {
      "inputs": [],
      "name": "totalAmount",
      "outputs": [
        {
          "internalType": "uint256",
          "name": "",
          "type": "uint256"
        }
      ],
      "stateMutability": "view",
      "type": "function",
      "constant": true
    },
    {
      "inputs": [],
      "name": "yideng",
      "outputs": [
        {
          "internalType": "address payable",
          "name": "",
          "type": "address"
        }
      ],
      "stateMutability": "view",
      "type": "function",
      "constant": true
    },
    {
      "inputs": [],
      "name": "getBalance",
      "outputs": [
        {
          "internalType": "uint256",
          "name": "",
          "type": "uint256"
        }
      ],
      "stateMutability": "view",
      "type": "function",
      "constant": true
    },
    {
      "inputs": [
        {
          "internalType": "uint256",
          "name": "c",
          "type": "uint256"
        },
        {
          "internalType": "bool",
          "name": "_isEqual",
          "type": "bool"
        }
      ],
      "name": "createRedPacket",
      "outputs": [],
      "stateMutability": "payable",
      "type": "function",
      "payable": true
    },
    {
      "inputs": [],
      "name": "grabRedPacket",
      "outputs": [],
      "stateMutability": "nonpayable",
      "type": "function"
    }
  ],
  "bytecode": "0x608060405234801561001057600080fd5b50336000806101000a81548173ffffffffffffffffffffffffffffffffffffffff021916908373ffffffffffffffffffffffffffffffffffffffff160217905550611015806100606000396000f3fe6080604052600436106100a3576000357c0100000000000000000000000000000000000000000000000000000000900480638cd221c9116100765780638cd221c914610154578063acbe84521461017f578063bcb8f8f8146101aa578063bdb20c02146101c6578063c4712e2114610203576100a3565b806306661abd146100a857806312065fe0146100d35780631a39d8ef146100fe5780635cd52e2214610129575b600080fd5b3480156100b457600080fd5b506100bd61021a565b6040516100ca91906107df565b60405180910390f35b3480156100df57600080fd5b506100e8610220565b6040516100f591906107df565b60405180910390f35b34801561010a57600080fd5b5061011361023f565b60405161012091906107df565b60405180910390f35b34801561013557600080fd5b5061013e610245565b60405161014b919061083b565b60405180910390f35b34801561016057600080fd5b50610169610269565b60405161017691906107df565b60405180910390f35b34801561018b57600080fd5b5061019461026f565b6040516101a19190610871565b60405180910390f35b6101c460048036038101906101bf91906108e9565b610282565b005b3480156101d257600080fd5b506101ed60048036038101906101e89190610967565b61046a565b6040516101fa91906107df565b60405180910390f35b34801561020f57600080fd5b50610218610482565b005b60035481565b60003073ffffffffffffffffffffffffffffffffffffffff1631905090565b60015481565b60008054906101000a900473ffffffffffffffffffffffffffffffffffffffff1681565b60045481565b600260009054906101000a900460ff1681565b600034116102c5576040517f08c379a00000000000000000000000000000000000000000000000000000000081526004016102bc906109f1565b60405180910390fd5b60008211610308576040517f08c379a00000000000000000000000000000000000000000000000000000000081526004016102ff90610a5d565b60405180910390fd5b60006003541461034d576040517f08c379a000000000000000000000000000000000000000000000000000000000815260040161034490610ac9565b60405180910390fd5b81341015610390576040517f08c379a000000000000000000000000000000000000000000000000000000000815260040161038790610b35565b60405180910390fd5b336000806101000a81548173ffffffffffffffffffffffffffffffffffffffff021916908373ffffffffffffffffffffffffffffffffffffffff16021790555080600260006101000a81548160ff02191690831515021790555034600181905550816003819055506004600081548092919061040b90610b84565b91905055503373ffffffffffffffffffffffffffffffffffffffff167fc22cc5d58ab18f8823fb67bdeb440108b1c169fed0ed28f6d36efac050e1349834848460045460405161045e9493929190610bcc565b60405180910390a25050565b60056020528060005260406000206000915090505481565b6000600354116104c7576040517f08c379a00000000000000000000000000000000000000000000000000000000081526004016104be90610a5d565b60405180910390fd5b600454600560003373ffffffffffffffffffffffffffffffffffffffff1673ffffffffffffffffffffffffffffffffffffffff168152602001908152602001600020540361054a576040517f08c379a000000000000000000000000000000000000000000000000000000000815260040161054190610c5d565b60405180910390fd5b60006001541161058f576040517f08c379a000000000000000000000000000000000000000000000000000000000815260040161058690610cc9565b60405180910390fd5b600454600560003373ffffffffffffffffffffffffffffffffffffffff1673ffffffffffffffffffffffffffffffffffffffff1681526020019081526020016000208190555060006001600354036105eb5760015490506106f9565b600260009054906101000a900460ff161561065a576003546001546106109190610d18565b905060008111610655576040517f08c379a000000000000000000000000000000000000000000000000000000000815260040161064c90610d95565b60405180910390fd5b6106f8565b6000600160083360008054906101000a900473ffffffffffffffffffffffffffffffffffffffff166003546001544260405160200161069d959493929190610e53565b60405160208183030381529060405280519060200120600190046106c19190610eb2565b6106cb9190610ee3565b9050600a816001546106dd9190610f17565b6106e79190610d18565b9150600082036106f657600191505b505b5b3373ffffffffffffffffffffffffffffffffffffffff166108fc829081150290604051600060405180830381858888f1935050505015801561073f573d6000803e3d6000fd5b5080600160008282546107529190610f59565b925050819055506003600081548092919061076c90610f8d565b91905055503373ffffffffffffffffffffffffffffffffffffffff167f77e0b9b1dc6f4c4aa20acb469a8f24fc10a8df94d6ad6e4ebada652e23630605826004546040516107bb929190610fb6565b60405180910390a250565b6000819050919050565b6107d9816107c6565b82525050565b60006020820190506107f460008301846107d0565b92915050565b600073ffffffffffffffffffffffffffffffffffffffff82169050919050565b6000610825826107fa565b9050919050565b6108358161081a565b82525050565b6000602082019050610850600083018461082c565b92915050565b60008115159050919050565b61086b81610856565b82525050565b60006020820190506108866000830184610862565b92915050565b600080fd5b61089a816107c6565b81146108a557600080fd5b50565b6000813590506108b781610891565b92915050565b6108c681610856565b81146108d157600080fd5b50565b6000813590506108e3816108bd565b92915050565b60008060408385031215610900576108ff61088c565b5b600061090e858286016108a8565b925050602061091f858286016108d4565b9150509250929050565b6000610934826107fa565b9050919050565b61094481610929565b811461094f57600080fd5b50565b6000813590506109618161093b565b92915050565b60006020828403121561097d5761097c61088c565b5b600061098b84828501610952565b91505092915050565b600082825260208201905092915050565b7f616d6f756e74206d757374203e20300000000000000000000000000000000000600082015250565b60006109db600f83610994565b91506109e6826109a5565b602082019050919050565b60006020820190508181036000830152610a0a816109ce565b9050919050565b7f636f756e74206d757374203e2030000000000000000000000000000000000000600082015250565b6000610a47600e83610994565b9150610a5282610a11565b602082019050919050565b60006020820190508181036000830152610a7681610a3a565b9050919050565b7f70726576696f7573207061636b6574207374696c6c2061637469766500000000600082015250565b6000610ab3601c83610994565b9150610abe82610a7d565b602082019050919050565b60006020820190508181036000830152610ae281610aa6565b9050919050565b7f616d6f756e74206d757374203e3d20636f756e74000000000000000000000000600082015250565b6000610b1f601483610994565b9150610b2a82610ae9565b602082019050919050565b60006020820190508181036000830152610b4e81610b12565b9050919050565b7f4e487b7100000000000000000000000000000000000000000000000000000000600052601160045260246000fd5b6000610b8f826107c6565b91507fffffffffffffffffffffffffffffffffffffffffffffffffffffffffffffffff8203610bc157610bc0610b55565b5b600182019050919050565b6000608082019050610be160008301876107d0565b610bee60208301866107d0565b610bfb6040830185610862565b610c0860608301846107d0565b95945050505050565b7f796f752068617665206772616262656400000000000000000000000000000000600082015250565b6000610c47601083610994565b9150610c5282610c11565b602082019050919050565b60006020820190508181036000830152610c7681610c3a565b9050919050565b7f746f74616c416d6f756e74206d757374203e2030000000000000000000000000600082015250565b6000610cb3601483610994565b9150610cbe82610c7d565b602082019050919050565b60006020820190508181036000830152610ce281610ca6565b9050919050565b7f4e487b7100000000000000000000000000000000000000000000000000000000600052601260045260246000fd5b6000610d23826107c6565b9150610d2e836107c6565b925082610d3e57610d3d610ce9565b5b828204905092915050565b7f7065722d736861726520616d6f756e74206973207a65726f0000000000000000600082015250565b6000610d7f601883610994565b9150610d8a82610d49565b602082019050919050565b60006020820190508181036000830152610dae81610d72565b9050919050565b60006c0100000000000000000000000082029050919050565b6000610dd982610db5565b9050919050565b6000610deb82610dce565b9050919050565b610e03610dfe82610929565b610de0565b82525050565b6000610e1482610dce565b9050919050565b610e2c610e278261081a565b610e09565b82525050565b6000819050919050565b610e4d610e48826107c6565b610e32565b82525050565b6000610e5f8288610df2565b601482019150610e6f8287610e1b565b601482019150610e7f8286610e3c565b602082019150610e8f8285610e3c565b602082019150610e9f8284610e3c565b6020820191508190509695505050505050565b6000610ebd826107c6565b9150610ec8836107c6565b925082610ed857610ed7610ce9565b5b828206905092915050565b6000610eee826107c6565b9150610ef9836107c6565b9250828201905080821115610f1157610f10610b55565b5b92915050565b6000610f22826107c6565b9150610f2d836107c6565b9250828202610f3b816107c6565b91508282048414831517610f5257610f51610b55565b5b5092915050565b6000610f64826107c6565b9150610f6f836107c6565b9250828203905081811115610f8757610f86610b55565b5b92915050565b6000610f98826107c6565b915060008203610fab57610faa610b55565b5b600182039050919050565b6000604082019050610fcb60008301856107d0565b610fd860208301846107d0565b939250505056fea2646970667358221220d7bc5c701d0c20c26a5224689187dfcc789edcf5db256f9d47829cbacfc5110b64736f6c63430008150033",
  "immutableReferences": {},
  "source": "// SPDX-License-Identifier: GPL-3.0\npragma solidity >=0.7.0 <0.9.0;\n\ncontract RedPacket {\n    address payable public yideng;\n    uint256 public totalAmount;\n    bool public isEqual;\n    uint256 public count;\n    uint256 public roundId;\n    mapping(address => uint256) public grabbedRound;\n\n    event PacketCreated(address indexed sender, uint256 amount, uint256 count, bool isEqual, uint256 roundId);\n    event PacketGrabbed(address indexed sender, uint256 amount, uint256 roundId);\n\n    constructor() {\n        yideng = payable(msg.sender);\n    }\n\n    modifier onlyWhenActive() {\n        require(count > 0, \"count must > 0\");\n        _;\n    }\n\n    // \n    function getBalance() public view returns (uint256) {\n        return address(this).balance;\n    }\n\n    // \n    function createRedPacket(uint256 c, bool _isEqual) external payable {\n        require(msg.value > 0, \"amount must > 0\");\n        require(c > 0, \"count must > 0\");\n        require(count == 0, \"previous packet still active\");\n        require(msg.value >= c, \"amount must >= count\");\n\n        yideng = payable(msg.sender);\n        isEqual = _isEqual;\n        totalAmount = msg.value;\n        count = c;\n        roundId++;\n\n        emit PacketCreated(msg.sender, msg.value, c, _isEqual, roundId);\n    }\n\n    // \n    function grabRedPacket() public onlyWhenActive {\n        require(grabbedRound[msg.sender] != roundId, \"you have grabbed\");\n        require(totalAmount > 0, \"totalAmount must > 0\");\n\n        grabbedRound[msg.sender] = roundId;\n        uint256 amount;\n\n        if (count == 1) {\n            amount = totalAmount;\n        } else if (isEqual) {\n            amount = totalAmount / count;\n            require(amount > 0, \"per-share amount is zero\");\n        } else {\n            uint256 random = (uint256(\n                keccak256(\n                    abi.encodePacked(\n                        msg.sender,\n                        yideng,\n                        count,\n                        totalAmount,\n                        block.timestamp\n                    )\n                )\n            ) % 8) + 1;\n            amount = (totalAmount * random) / 10;\n            if (amount == 0) {\n                amount = 1;\n            }\n        }\n\n        payable(msg.sender).transfer(amount);\n        totalAmount -= amount;\n        count--;\n\n        emit PacketGrabbed(msg.sender, amount, roundId);\n    }\n}\n",
  "sourcePath": "/Users/jayden-mo/Desktop/all/yd-truffle-test/contracts/RedPacket.sol",
  "compiler": {
    "name": "solc",
    "version": "0.8.21+commit.d9974bed.Emscripten.clang"
  },
  "schemaVersion": "3.4.16",
  "updatedAt": "2025-12-29T10:42:32.360Z",
  "networkType": "ethereum",
  "devdoc": {
    "kind": "dev",
    "methods": {},
    "version": 1
  },
  "userdoc": {
    "kind": "user",
    "methods": {},
    "version": 1
  }
}